:100000000C9463000C948B000C948B000C945E0594
:100010000C945E050C945E050C948B000C948B0084
:100020000C948B000C948B000C948B000C948B0024
:100030000C948B000C948B000C948B000C948B0014
:100040000C9414050C948B000C94E2040C94BC04E6
:100050000C948B000C948B000C948B000C948B00F4
:100060000C948B000C948B0000000008000201002F
:100070000003040700000000000000000000000072
:1000800023002600290000000000240027002A0089
:1000900000000000250028002B00040404040404D0
:1000A0000404020202020202030303030303010227
:1000B00004081020408001020408102001020408F6
:1000C00010202206CA0B11241FBECFEFD8E0DEBFDE
:1000D000CDBF11E0A0E0B1E0EEEAFDE102C0059085
:1000E0000D92A03AB107D9F723E0A0EAB1E001C030
:1000F0001D92AC31B207E1F710E0C2E6D0E004C0D7
:100100002197FE010E948E0EC136D107C9F70E94C9
:1001100087070C94CA0E0C9400000F931F93CF9383
:10012000DF93C091FF02E0E0F3E0CD3211F0EFEF9A
:10013000F2E08F0120E030E0A901D801DD918D01CE
:1001400080ED8D0F8A3090F4AAE0B0E00E94940E0A
:100150002D2FDD0F330B440B550B260F371F481F78
:10016000591F2053310941095109E7CFA4E6B0E0F6
:100170000E94940EAB01BC01DF01819190ED980FBC
:100180009A30D0F38E3259F511968C91119790EDEB
:10019000980F9A3020F5082E000C990BC0972AE092
:1001A000289F8001299F100D1124012E000C220B85
:1001B000330B400F511F621F731F12968C9190EDED
:1001C000980F9A3060F4082E000C990BC097092EF6
:1001D000000CAA0BBB0B480F591F6A1F7B1FCD32A7
:1001E00039F470956095509541955F4F6F4F7F4FF3
:1001F000CB01BA01DF91CF911F910F9108954F92DA
:100200005F926F927F928F929F92AF92BF92CF92A6
:10021000DF92EF92FF921F93CF93DF93CFEFD2E065
:10022000FE01C12CD12C7601119180ED810F8A3015
:10023000A8F4AAE0B0E0A70196010E94940EC12E96
:10024000110FDD08EE08FF08C60ED71EE81EF91EC6
:1002500080E3C81AD108E108F108E6CFC701B6016A
:1002600024E630E040E050E00E946C0E9B01AC01BF
:1002700060EA76E881E090E00E94480E4B015C0164
:100280009E01899190ED980F9A30D0F38E3221F52E
:10029000E901219680E1482E87E2582E612C712CCD
:1002A000A99180ED8A0F8A30B8F40A2E000CBB0B9E
:1002B000D097A30192010E949F0E860E971EA81E42
:1002C000B91EC301B2012AE030E040E050E00E94D4
:1002D0006C0E29013A01E4CFC701B60124E630E0F3
:1002E00040E050E00E946C0E60E472E48FE090E029
:1002F0000E94480E6B017C01C501B4016D5F7F4F08
:100300008F4F9F4F26E030E040E050E00E946C0E9F
:10031000C701B601620F731F841F951FDF91CF9134
:100320001F91FF90EF90DF90CF90BF90AF909F9084
:100330008F907F906F905F904F900895AF92BF9293
:10034000CF92DF92EF92FF920F931F93CF93DF93A1
:100350006C017B018B01040F151FEB015E01AE18D0
:10036000BF08C017D10759F06991D601ED91FC91F2
:100370000190F081E02DC6010995892B79F7C5011F
:10038000DF91CF911F910F91FF90EF90DF90CF9071
:10039000BF90AF900895FC01538D448D252F30E020
:1003A000842F90E0821B930B541710F0CF96089582
:1003B00001970895FC01918D828D981761F0A28DAF
:1003C000AE0FBF2FB11D5D968C91928D9F5F9F7375
:1003D000928F90E008958FEF9FEF0895FC01918D2B
:1003E000828D981731F0828DE80FF11D858D90E098
:1003F00008958FEF9FEF0895FC01918D228D892F35
:1004000090E0805C9F4F821B91098F73992708951C
:100410008DEE91E00E94FC0121E0892B09F420E09F
:10042000822F089580E090E0892B29F00E94080235
:1004300081110C9400000895FC01A48DA80FB92F20
:10044000B11DA35ABF4F2C91848D90E001968F73FC
:100450009927848FA689B7892C93A089B1898C911B
:10046000837080648C93938D848D981306C002886A
:10047000F389E02D80818F7D80830895EF92FF9234
:100480000F931F93CF93DF93EC0181E0888F9B8DB7
:100490008C8D98131AC0E889F989808185FF15C071
:1004A0009FB7F894EE89FF896083E889F989808194
:1004B0008370806480839FBF81E090E0DF91CF9163
:1004C0001F910F91FF90EF900895F62E0B8D10E085
:1004D0000F5F1F4F0F731127E02E8C8D8E110CC0F4
:1004E0000FB607FCFACFE889F989808185FFF5CF3F
:1004F000CE010E941C02F1CFEB8DEC0FFD2FF11D00
:10050000E35AFF4FF0829FB7F8940B8FEA89FB897B
:1005100080818062CFCFCF93DF93EC01888D8823D9
:10052000B9F0AA89BB89E889F9898C9185FD03C056
:10053000808186FD0DC00FB607FCF7CF8C9185FF3B
:10054000F2CF808185FFEDCFCE010E941C02E9CF62
:10055000DF91CF9108953FB7F8948091E101909198
:10056000E201A091E301B091E40126B5A89B05C08A
:100570002F3F19F00196A11DB11D3FBFBA2FA92F22
:10058000982F8827BC01CD01620F711D811D911D1F
:1005900042E0660F771F881F991F4A95D1F708958B
:1005A0002091E7013091E8012817390771F4909103
:1005B000E5018091E601981741F0E091E501F0E056
:1005C000E056FE4F808190E008958FEF9FEF0895F1
:1005D0000895EF92FF920F931F93CF93DF93DC0167
:1005E0005C96ED90FC905D97E114F10479F481E064
:1005F00090E013969C938E93129790E080E0DF91A9
:10060000CF911F910F91FF90EF9008955196ED912A
:10061000FC91529750968C915097982F90950FB7C8
:100620005E962C915E97122F127021FD6095F894C2
:100630002081112319F1282B2083E7012197F1F75D
:1006400028E0462F50E0308160FF1AC0382B3083FD
:10065000E7012197F1F7BA0175956795215089F760
:10066000112381F08081892380830FBF5C968D9157
:100670009C910197F1F781E090E0C1CF2923DCCF75
:100680003923E5CF9081892BEFCF2091E70130917D
:10069000E8012817390771F48091E6012091E501FE
:1006A00090E0805C9F4F821B910960E470E00E94A3
:1006B000580E089590E080E008952091E701309170
:1006C000E80128173907B9F49091E5018091E60116
:1006D000981789F0E091E501F0E0E056FE4F808147
:1006E0002091E50130E02F5F3F4F2F733327209398
:1006F000E50190E008958FEF9FEF089590E080E08E
:100700000895FC0101900020E9F73197AF01481BE3
:10071000590BBC018DEE91E00C949E018F929F923B
:10072000AF92BF920F931F93CF93DF93CDB7DEB7F6
:10073000A1970FB6F894DEBF0FBECDBF19A242300D
:1007400008F44AE08E010F5D1F4F842E912CB12CCE
:10075000A12CA50194010E946C0EE62FB901CA01DB
:10076000EA30F4F4E05DD801EE938D01232B242BC5
:10077000252B79F790E080E0109719F0CD010E94C9
:100780008103A1960FB6F894DEBF0FBECDBFDF91F7
:10079000CF911F910F91BF90AF909F908F90089530
:1007A000E95CE1CFCF93DF930E948103EC0184E207
:1007B00091E00E9481038C0F9D1FDF91CF910895DE
:1007C0004F925F926F927F928F929F92AF92BF9261
:1007D000CF92DF92EF92FF920F931F93CF936B0113
:1007E0007C01742EAC019B010E94430E882399F07A
:1007F00087E291E0CF911F910F91FF90EF90DF90F2
:10080000CF90BF90AF909F908F907F906F905F90B0
:100810004F900C94810346015701E894B7F82FEFED
:100820003FEF4FE75FE7C501B4010E94430E81111E
:100830000DC02FEF3FEF4FE75FE7C501B4010E9406
:10084000790C18161CF48BE291E0D4CF2FEF3FEF18
:100850004FE75FE4C701B6010E94D10D18161CF4E2
:100860008FE291E0C7CF2FEF3FEF4FE75FECC7017B
:10087000B6010E94790C87FDF3CF20E030E0A9019A
:10088000C701B6010E94790C10E000E087FF0AC0A2
:100890006DE28DEE91E00E943E028C01F7FAF09439
:1008A000F7F8F094C0E060E070E080E09FE37C1631
:1008B00041F020E030E040E251E40E947E0CCF5F46
:1008C000F6CFA70196010E940D0C2B013C010E945E
:1008D000F00C4B015C014AE00E948E037C01E00EAB
:1008E000F11ECC23C1F1C501B4010E941F0D9B0173
:1008F000AC01C301B2010E940C0C4B015C016EE221
:100900008DEE91E00E943E02E80EF91EC15018F1F2
:1009100020E030E040E251E4C501B4010E94D60D70
:100920002B013C010E94F00C4B01B12CA12C4AE0A0
:10093000C501B4010E948E03E80EF91EC501B40181
:100940000E941F0D9B01AC01C301B2010E940C0C5F
:100950004B015C01DBCFC701CF911F910F91FF903D
:10096000EF90DF90CF90BF90AF909F908F907F904F
:100970006F905F904F9008951F920F920FB60F9255
:1009800011242F933F934F935F936F937F938F9394
:100990009F93AF93BF93EF93FF938DEE91E00E94EF
:1009A0001C02FF91EF91BF91AF919F918F917F9129
:1009B0006F915F914F913F912F910F900FBE0F90CC
:1009C0001F9018951F920F920FB60F9211242F931C
:1009D0008F939F93EF93FF93E091FD01F091FE01C0
:1009E0008081E0910302F091040282FD1BC090819E
:1009F000809106028F5F8F7320910702821741F06A
:100A0000E0910602F0E0E351FE4F958F80930602DD
:100A1000FF91EF919F918F912F910F900FBE0F90AB
:100A20001F9018958081F4CF1F920F920FB60F92EE
:100A300011242F933F938F939F93AF93BF938091F4
:100A4000E9019091EA01A091EB01B091EC013091A4
:100A5000E00123E0230F2D3758F50196A11DB11DAC
:100A60002093E0018093E9019093EA01A093EB01C8
:100A7000B093EC018091E1019091E201A091E3013A
:100A8000B091E4010196A11DB11D8093E101909305
:100A9000E201A093E301B093E401BF91AF919F9174
:100AA0008F913F912F910F900FBE0F901F9018952F
:100AB00026E8230F0296A11DB11DD2CF1F920F92DF
:100AC0000FB60F9211242F933F934F935F936F9321
:100AD0007F938F939F93AF93BF93EF93FF93E09197
:100AE000E701F091E801309749F0A685B785858543
:100AF000968D91FF14C09C918923A1F4FF91EF91F1
:100B0000BF91AF919F918F917F916F915F914F9125
:100B10003F912F910F900FBE0F901F9018959C91B1
:100B2000892361F7A389B4899C918589809589235C
:100B30008C93868997890197F1F7608D718DA685D1
:100B4000B785558538E020E0CB010197F1F7822F7A
:100B500090E095958795282F4C91452309F02068C2
:100B6000315091F7868D81FD20958091E60190E0CE
:100B700001968F7399273091E501381799F0A0916C
:100B8000E601B0E0A056BE4F2C938093E601828D23
:100B9000938D0197F1F7A389B4898C919589892B5D
:100BA0008C93ACCF868D8160868FF1CF90E0FC0175
:100BB000E859FF4F2491FC01E255FF4F3491FC01AD
:100BC000E656FF4FE491EE23C9F0222339F023309B
:100BD00001F1A8F4213019F1223029F1F0E0EE0FF3
:100BE000FF1FE057FF4FA591B4918FB7F894EC9198
:100BF000611126C030953E233C938FBF0895273066
:100C0000A9F02830C9F0243049F7809180008F7D09
:100C100003C0809180008F7780938000DFCF84B500
:100C20008F7784BDDBCF84B58F7DFBCF8091B00003
:100C30008F778093B000D2CF8091B0008F7DF9CFB5
:100C40003E2BDACF0F931F93CF93DF931092F001D7
:100C50001092EF0108EE13E020E030E00093F10184
:100C60001093F2012093F3013093F40184E091E0BA
:100C70009093EE018093ED0185EC90E09093FA0162
:100C80008093F90184EC90E09093FC018093FB0148
:100C900080EC90E09093FE018093FD0181EC90E068
:100CA000909300028093FF0182EC90E09093020207
:100CB0008093010286EC90E09093040280930302FB
:100CC0001092060210920702109208021092090276
:100CD0004FEF5FEFBA014093A9025093AA026093CD
:100CE000AB027093AC021092B1021092B202109259
:100CF000B3021092B4028FEF99ECAAE9BBE38093A0
:100D0000B9029093BA02A093BB02B093BC02809345
:100D1000C1029093C202A093C302B093C402809315
:100D2000C9029093CA02A093CB02B093CC028093E5
:100D3000D1029093D202A093D302B093D4028093B5
:100D4000D9029093DA02A093DB02B093DC024093C5
:100D5000E1025093E2026093E3027093E4028FEFAA
:100D600090E09093EA028093E9024093ED02509361
:100D7000EE026093EF027093F0024093F5025093FD
:100D8000F6026093F7027093F8021092FD0210923F
:100D9000FE0282E080930E0310920F031092100364
:100DA0001092110310921203109213031092140365
:100DB0001092150310921703109216031092190344
:100DC000109218031092FF0210928D0210928C0262
:100DD00000938E0210938F02209390023093910221
:100DE00086E191E090938B0280938A021092A10297
:100DF0001092A0021092A3021092A2021092A502D9
:100E00001092A4021092A7021092A6026091A8026A
:100E10006E7F6D7F6093A8026695617081E06827A0
:100E200085E00E94D60543EB50E0FA0164918FE91A
:100E300090E0FC012491222399F030E0220F331F2F
:100E4000F901EA57FF4FA591B491F901E057FF4F1F
:100E5000259134912FB7F8943C91632B6C932FBF5D
:100E6000FA01449140939A02FC018491E82FF0E04A
:100E7000EE0FFF1FE057FF4F8591949190939C02D6
:100E800080939B0204EB10E0F8012491C0EAD0E0CB
:100E9000FE0184918823C9F090E0880F991FFC011E
:100EA000EA57FF4FA591B491FC01E057FF4F4591E0
:100EB00054913FB7F8949C91822F809598239C93EE
:100EC000FA019081892380833FBF8091A80281FD30
:100ED00004C061E086E00E94D60586E08093960219
:100EE000F801049100939702FE01C491EC2FF0E009
:100EF000EE0FFF1FE458FF4F859194919093990254
:100F000080939802DF91CF911F910F91089578946B
:100F100084B5826084BD84B5816084BD85B58260FE
:100F200085BD85B5816085BD80916E0081608093AF
:100F30006E00109281008091810082608093810018
:100F40008091810081608093810080918000816028
:100F5000809380008091B10084608093B100809183
:100F6000B00081608093B00080917A0084608093AB
:100F70007A0080917A00826080937A0080917A0072
:100F8000816080937A0080917A00806880937A00F3
:100F90001092C100E091FD01F091FE0182E080839A
:100FA000E091F901F091FA011082E091FB01F091DA
:100FB000FC018FEC808310920502E0910102F09118
:100FC000020286E08083E091FF01F09100028081BF
:100FD00080618083E091FF01F09100028081886050
:100FE0008083E091FF01F09100028081806880831E
:100FF000E091FF01F091000280818F7D808310924B
:10100000A5021092A4021092A3021092A2021092C2
:10101000A1021092A0028DE991E09093A702809323
:10102000A60290919602963108F047C02DEB30E071
:101030003093A1022093A0022BE931E03093A30268
:101040002093A2022CE231E03093A5022093A40267
:101050002091680084E0983048F031E09E3008F438
:1010600030E081E001C0880F3A95EAF7822B809347
:1010700068002DE630E0983050F02BE630E09E30EE
:1010800030F02CE630E0963110F030E020E0309384
:101090009E0220939D02292F30E0983008F082C0F4
:1010A00081E001C0880F9A95EAF780939F028091B2
:1010B000A6029091A7020197F1F78091A402909166
:1010C000A502892B49F1E091E701F091E80122E0C6
:1010D000EA38F20709F1309739F0A389B4899C9175
:1010E0008589809589238C938091A8028E7F809337
:1010F000A8021092E6011092E5018AE892E090932E
:10110000E8018093E701E0919D02F0919E028081C9
:1011100090919F02892B808386E291E00E94D20306
:1011200083E391E00E94D2038CE591E00E94D20318
:1011300086E291E00E94D20380E0682E80E0782E63
:1011400002E0FF24F3948AE892E00E944503892B91
:1011500009F40EC38AE892E00E945D03182F809183
:10116000120390911303A0911403B09115030196FB
:10117000A11DB11D8093120390931303A093140338
:10118000B0931503143209F4D2C2E0911003153262
:10119000B4F41A3019F01D3009F0D6C2EF30D0F097
:1011A000E12CD9C09E3040F42850310981E001C0C3
:1011B000880F2A95EAF779CF2E503109F7CF1A32E6
:1011C00069F31C3209F0C0C28091FD02812780932F
:1011D000FD02E4CF90910F03F0E0E150FD4F10824B
:1011E000E090FE02EE2009F45FC12091FF02822F01
:1011F000022E000C990B3FEB320F363008F0E0C0A6
:10120000C7978295807F90910003292F092E000CAB
:10121000330B4FEB490F463008F0DAC02753310942
:10122000820F9091FD02891335C1E0901103EE20E9
:1012300009F4B6CF8091160390911703019690930D
:101240001703809316038091F1029091F202A0910E
:10125000F302B091F4028093ED029093EE02A0931A
:10126000EF02B093F0028091F9029091FA02A091FE
:10127000FB02B091FC028093F5029093F602A093DA
:10128000F702B093F80280910E03882309F4A9C0F5
:10129000813009F060C08091AD029091AE02A091C2
:1012A000AF02B091B0028093A9029093AA02A093DA
:1012B000AB02B093AC028091B5029091B602A091BE
:1012C000B702B091B8028093B1029093B202A0939A
:1012D000B302B093B4028091BD029091BE02A0917E
:1012E000BF02B091C0028093B9029093BA02A0935A
:1012F000BB02B093BC028091C5029091C602A0913E
:10130000C702B091C8028093C1029093C202A09319
:10131000C302B093C4028091D5029091D602A091ED
:10132000D702B091D8028093D1029093D202A093B9
:10133000D302B093D4028091DD029091DE02A0919D
:10134000DF02B091E0028093D9029093DA02A09379
:10135000DB02B093DC0280910F038F5F80930F0359
:101360001092100381E01A3209F080E08093FE02AF
:10137000EE2009F4E8CE81E991E00E94810345E086
:1013800060E070E0CB010E94E0038DE991E00E94F3
:10139000810345E060E070E0CB010E94E0030E9421
:1013A000AB024B015C010E94AB02681979098A0902
:1013B0009B09683E73408105910508F0C4CEF3CFC8
:1013C0002156263018F4875591091BCFC09719CFA5
:1013D0009156963018F42755310922CF2053310900
:1013E0001FCF8091CD029091CE02A091CF02B091FB
:1013F000D0028093C9029093CA02A093CB02B0930B
:10140000CC028091AD029091AE02A091AF02B0915A
:10141000B0028093A9029093AA02A093AB02B0936A
:10142000AC028091BD029091BE02A091BF02B0912A
:10143000C0028093B9029093BA02A093BB02B0930A
:10144000BC028091C5029091C602A091C702B091E2
:10145000C8028093C1029093C202A093C302B093CA
:10146000C4028091EB029091EC029093EA02809387
:10147000E9028091E5029091E602A091E702B09125
:10148000E8028093E1029093E202A093E302B0931A
:10149000E40261CF80911803909119030196909313
:1014A0001903809318037CCE91111AC0AFEFB2E0FC
:1014B000E5E8F1E09D01E90189919E01882309F4A5
:1014C00063C191918917B9F3EBE8F1E08D9188231D
:1014D00009F45DC191918917C9F300930E033BCFC5
:1014E000E0910E03E23009F45BCE8091FF02882385
:1014F00009F456CED0E2ED9FF0011124E92B31978B
:10150000E932F10508F027CFE857F54F0C948E0E1D
:10151000CE0AF20A100B2B0B360B700B770B810BDC
:101520008C0BAB09AB09AB09AB09AB09AB09AB0938
:10153000AB09AB09AB09AB09AB09AB09AB09AB090B
:10154000AB09AB09AB09AB09AB09AB09AB09AB09FB
:10155000CE0AEC0AF20A100B2B0B360B510B5C0B6C
:10156000B10AEFEFF2E020E030E0A901D19080ED88
:101570008D0D8A3008F0ABC0AAE0B0E00E94940E56
:101580002D2DDD0C330B440B550B260F371F481F39
:10159000591F2053310941095109E8CF0E948D009C
:1015A0006093AD027093AE028093AF029093B0024D
:1015B0002FB7F8948091E9019091EA01A091EB0195
:1015C000B091EC012FBF8093F1029093F202A093AF
:1015D000F302B093F402BFCE91E0813409F484C0E9
:1015E00090E082C00E94FF006093BD027093BE0233
:1015F0008093BF029093C0022FB7F8948091E901C5
:101600009091EA01A091EB01B091EC012FBF809382
:10161000F9029093FA02A093FB02B093FC029BCED6
:10162000833509F0BDCD8091BD029091BE02A0919D
:10163000BF02B091C002B095A095909581959F4F43
:10164000AF4FBF4F8093BD029093BE02A093BF02E5
:10165000B093C00280CE0E94FF006093C5027093D9
:10166000C6028093C7029093C80275CE873509F0F1
:1016700097CD8091C5029091C602A091C702B0910A
:10168000C802B095A095909581959F4FAF4FBF4FE1
:101690008093C5029093C602A093C702B093C8027C
:1016A0005ACE0E948D006093D5027093D60280932B
:1016B000D7029093D8024FCE0E948D006093DD0236
:1016C0007093DE028093DF029093E00244CE209379
:1016D000B5023093B6024093B7025093B8023BCEA6
:1016E00091E081330CF47CCF9093110334CE8FEFD3
:1016F00092E00E94E60B99279093EC028093EB0214
:101700002ACE0E948D006093E5027093E6028093DA
:10171000E7029093E8021FCE0E948D006093CD02F5
:101720007093CE028093CF029093D00214CE109289
:10173000100310920F031092FD0200930E031092FB
:10174000FE0210921103FFCCEE3040F481E08E0FC8
:1017500080931003F0E0E150FD4F10838091FE0272
:101760008111F1CC8091FD0218271093FD02EBCC82
:101770006114710409F4E7CC0E940802882309F47B
:10178000E2CC0E940000DFCCF0920E03E4CD109278
:101790000E03E1CD86E191E090938B0280938A0263
:1017A0008091E7019091E8018A58924071F4E091AC
:1017B0009D02F0919E02908180919F0280958923E5
:1017C00080831092E8011092E7010895FC018827B8
:1017D0009927E89421912032E9F3293010F02E3036
:1017E000C8F32B3241F02D3239F4689404C00E94C2
:1017F000040C820F911D219120532A30C0F31EF456
:10180000909581959F4F08957AE0979F902D879F9F
:10181000802D910D112408955058BB27AA270E94AE
:10182000240C0C94970D0E94890D38F00E94900DA5
:1018300020F039F49F3F19F426F40C94860D0EF431
:10184000E095E7FB0C94800DE92F0E94A80D58F35A
:10185000BA17620773078407950720F079F4A6F595
:101860000C94CA0D0EF4E0950B2EBA2FA02D0B018F
:10187000B90190010C01CA01A0011124FF27591BD5
:1018800099F0593F50F4503E68F11A16F040A22FDB
:10189000232F342F4427585FF3CF4695379527954C
:1018A000A795F0405395C9F77EF41F16BA0B620B4B
:1018B000730B840BBAF09150A1F0FF0FBB1F661F92
:1018C000771F881FC2F70EC0BA0F621F731F841FD5
:1018D00048F4879577956795B795F7959E3F08F0FB
:1018E000B0CF9395880F08F09927EE0F97958795BD
:1018F00008950E945C0D08F481E008950E94920C06
:101900000C94970D0E94900D58F00E94890D40F0A4
:1019100029F45F3F29F00C94800D51110C94CB0DEC
:101920000C94860D0E94A80D68F39923B1F35523FA
:1019300091F3951B550BBB27AA27621773078407E2
:1019400038F09F5F5F4F220F331F441FAA1FA9F378
:1019500035D00E2E3AF0E0E832D091505040E69566
:10196000001CCAF72BD0FE2F29D0660F771F881FC7
:10197000BB1F261737074807AB07B0E809F0BB0BBA
:10198000802DBF01FF2793585F4F3AF09E3F5105CE
:1019900078F00C94800D0C94CB0D5F3FE4F3983EEF
:1019A000D4F3869577956795B795F7959F5FC9F7B7
:1019B000880F911D9695879597F90895E1E0660F38
:1019C000771F881FBB1F621773078407BA0720F0B1
:1019D000621B730B840BBA0BEE1F88F7E09508951A
:1019E0000E94B00D88F09F5798F0B92F9927B751F2
:1019F000B0F0E1F0660F771F881F991F1AF0BA95B3
:101A0000C9F714C0B13091F00E94CA0DB1E0089539
:101A10000C94CA0D672F782F8827B85F39F0B93F2B
:101A2000CCF3869577956795B395D9F73EF4909565
:101A30008095709561957F4F8F4F9F4F0895E894E3
:101A400009C097FB3EF490958095709561957F4F06
:101A50008F4F9F4F9923A9F0F92F96E9BB279395B4
:101A6000F695879577956795B795F111F8CFFAF4C4
:101A7000BB0F11F460FF1BC06F5F7F4F8F4F9F4FF5
:101A800016C0882311F096E911C0772321F09EE853
:101A9000872F762F05C0662371F096E8862F70E0B9
:101AA00060E02AF09A95660F771F881FDAF7880F93
:101AB0009695879597F90895990F0008550FAA0BE9
:101AC000E0E8FEEF16161706E807F907C0F0121651
:101AD0001306E407F50798F0621B730B840B950B54
:101AE00039F40A2661F0232B242B252B21F40895A9
:101AF0000A2609F4A140A6958FEF811D811D089546
:101B000097F99F6780E870E060E008959FEF80ECB0
:101B1000089500240A941616170618060906089553
:101B200000240A9412161306140605060895092EB9
:101B30000394000C11F4882352F0BB0F40F4BF2B28
:101B400011F460FF04C06F5F7F4F8F4F9F4F089568
:101B500057FD9058440F551F59F05F3F71F047955E
:101B6000880F97FB991F61F09F3F79F08795089543
:101B7000121613061406551FF2CF4695F1DF08C062
:101B8000161617061806991FF1CF8695710561057F
:101B900008940895E894BB2766277727CB0197F927
:101BA00008950E945C0D08F48FEF08950E94E90DDE
:101BB0000C94970D0E94890D38F00E94900D20F032
:101BC000952311F00C94800D0C94860D11240C9427
:101BD000CB0D0E94A80D70F3959FC1F3950F50E0B7
:101BE000551F629FF001729FBB27F00DB11D639FCF
:101BF000AA27F00DB11DAA1F649F6627B00DA11D75
:101C0000661F829F2227B00DA11D621F739FB00D1A
:101C1000A11D621F839FA00D611D221F749F33278A
:101C2000A00D611D231F849F600D211D822F762F23
:101C30006A2F11249F5750409AF0F1F088234AF000
:101C4000EE0FFF1FBB1F661F771F881F915050406C
:101C5000A9F79E3F510580F00C94800D0C94CB0D9C
:101C60005F3FE4F3983ED4F3869577956795B795F3
:101C7000F795E7959F5FC1F7FE2B880F911D96950D
:101C8000879597F908950E945C0D880B990B08952C
:101C9000DB018F939F930E94940EBF91AF91A29FFF
:101CA000800D911DA39F900DB29F900D112408955A
:101CB00097FB072E16F4009407D077FD09D00E94F9
:101CC000A70E07FC05D03EF4909581959F4F08958F
:101CD000709561957F4F0895A1E21A2EAA1BBB1B38
:101CE000FD010DC0AA1FBB1FEE1FFF1FA217B307E8
:101CF000E407F50720F0A21BB30BE40BF50B661FFE
:101D0000771F881F991F1A9469F7609570958095C1
:101D100090959B01AC01BD01CF010895EE0FFF1F0F
:101D20000590F491E02D09940E94BB0EA59F900DA3
:101D3000B49F900DA49F800D911D11240895B7FFAD
:101D40000C94940E0E94940E821B930B0895AA1B70
:101D5000BB1B51E107C0AA1FBB1FA617B70710F096
:101D6000A61BB70B881F991F5A95A9F780959095C8
:101D7000BC01CD010895A29FB001B39FC001A39FF4
:101D8000700D811D1124911DB29F700D811D1124B4
:101D9000911D089510E0C2E6D0E004C0FE010E944B
:0E1DA0008E0E2196C336D107C9F7F894FFCFF7
:101DAE00000000003E029E01CB018B02FC01DA0115
:101DBE00EE0100000000E9029E017E03E8024503E9
:101DCE005D03D0020D0A006E616E00696E66006FD3
:101DDE0076660047505320536869656C64205175D0
:101DEE0069636B5374617274204578616D706C65B4
:101DFE0020536B65746368207631320020202020DA
:101E0E00202020E280A677616974696E6720666F74
:101E1E0072206C6F636BE280A62020202020202091
:101E2E0020202020004750524D4300475047474145
:101E3E00004C61742F4C6F6E673A3A20002C2000D4
:00000001FF
